:020000040000FA
:0400000052EF01F0CA
:0600080042825AEF08F0ED
:100018004280D8CF25F0E8CF26F0E0CF27F0D9CF1F
:1000280028F0DACF29F09EA21CEF00F01EEF00F0B6
:1000380034EF00F09E92FE0E3E5CFF0E3F58FF0E1E
:100048004058FF0E4158D8B02CEF00F02EEF00F0CA
:1000580034EF00F0010E3E26000E3F2240224122DE
:100068007EA039EF00F03BEF00F073EF00F07E90D8
:100078003D2A030E3D6443EF00F045EF00F073EFB7
:1000880000F0000E3D6E010E00016827000E692386
:100098006A236B23010E3926000E3A223B223C22AA
:1000A8003C503B100BE1F40E395C010E3A58D8A0D5
:1000B80060EF00F062EF00F073EF00F0000E396EB1
:1000C800000E3A6E000E3B6E000E3C6E38A46FEFC9
:1000D80000F072EF00F0388473EF00F038947BA0E2
:1000E80078EF00F07AEF00F046EF01F07B9081A006
:1000F80080EF00F082EF00F089EF00F081B487EF25
:1001080000F089EF00F046EF01F081BA8EEF00F0C1
:1001180090EF00F046EF01F0000EBC6E4150401029
:100128000CE1EC0E3E5C030E3F58D8A09EEF00F0A9
:10013800A1EF00F0010EA2EF00F0000E366E36506F
:10014800D8A4A9EF00F0ABEF00F0B9EF00F0140E5F
:100158003E242E6EFC0E3F202F6EFF0E4020306E88
:10016800FF0E4120316EC5EF00F03E50EC082E6EB8
:10017800030E3F542F6E000E4054306E000E415453
:10018800316E315030102F1007E1630E2E5CD8B05D
:10019800D0EF00F0D2EF00F000EF01F02EC008F031
:1001A8002FC009F030C00AF031C00BF00A0E0C6EF7
:1001B800000E0D6E000E0E6E000E0F6E52EC0AF061
:1001C80008C014F009C015F00AC016F00BC017F0EB
:1001D8000A0E186E000E196E000E1A6E000E1B6EB7
:1001E80000EC0AF014C032F015C033F016C034F039
:1001F80017C035F008EF01F0630E326E000E336E53
:10020800000E346E000E356E3650D8A40EEF01F095
:1002180010EF01F02BEF01F032C021F033C022F0D3
:1002280034C023F035C024F0211E221E231E241EB4
:10023800212A000E22222322242221C02AF022C0B1
:100248002BF023C02CF024C02DF033EF01F032C086
:100258002AF033C02BF034C02CF035C02DF000014B
:1002680020EE02F09051D9269151DA222AC0DFFF00
:10027800000E3E6E000E3F6E000E406E000E416E88
:10028800000EBC6E29C0DAFF28C0D9FF27C0E0FFE6
:1002980026C0E8FF25C0D8FF4290100087EF0AF07B
:1002A800F29CF29ED08E700ED36E400E9B6EF29A28
:1002B800F194000ED56E000E0F01386F000E396FE5
:1002C800000E3A6F5D0E926EEF0E936E000E946EF6
:1002D8008050000E826E819880929D909F90030EB0
:1002E800CD6E9F92A50EBB6E7C0EBA6E7F90F90EF6
:1002F800526F7C0E516F000E496F000E486FA2803E
:10030800040E666E7C90040E5D6F7C84040E546F40
:10031800F19CF198F08E000E0001776F4C0E786F0B
:10032800000E796F000E7A6F000E7B6F2C0E7C6FBB
:10033800630E7D6F000E706F4C0E716F000E726F42
:10034800000E736F000E746F2C0E756F630E766F50
:1003580060C07EF061C07FF062C080F063C081F051
:10036800C1EC0AF000018D6F010E6027000E6123B9
:10037800622363238DC08FF060C07EF061C07FF080
:1003880062C080F063C081F0C1EC0AF000018D6F9B
:10039800010E6027000E6123622363238DC078F06D
:1003A80060C07EF061C07FF062C080F063C081F001
:1003B800C1EC0AF000018D6F010E6027000E612369
:1003C800622363238DC07BF060C07EF061C07FF044
:1003D80062C080F063C081F0C1EC0AF000018D6F4B
:1003E800010E6027000E6123622363238DC07AF01B
:1003F80060C07EF061C07FF062C080F063C081F0B1
:10040800C1EC0AF000018D6F010E6027000E612318
:10041800622363238DC07CF060C07EF061C07FF0F2
:1004280062C080F063C081F0C1EC0AF000018D6FFA
:10043800010E6027000E6123622363238DC07DF0C7
:1004480060C07EF061C07FF062C080F063C081F060
:10045800C1EC0AF000018D6F010E6027000E6123C8
:10046800622363238DC071F060C07EF061C07FF0AD
:1004780062C080F063C081F0C1EC0AF000018D6FAA
:10048800010E6027000E6123622363238DC074F080
:1004980060C07EF061C07FF062C080F063C081F010
:1004A800C1EC0AF000018D6F010E6027000E612378
:1004B800622363238DC073F060C07EF061C07FF05B
:1004C80062C080F063C081F0C1EC0AF000018D6F5A
:1004D800010E6027000E6123622363238DC075F02F
:1004E80060C07EF061C07FF062C080F063C081F0C0
:1004F800C1EC0AF000018D6F010E6027000E612328
:10050800622363238DC076F08FC08EF0F28CF28E5A
:100518009D827D80A0807A807A827A84F288F088B1
:1005280081A099EF02F09BEF02F0A2EF02F081B4F4
:10053800A0EF02F0A2EF02F093EF03F081BEA7EF65
:1005480002F0AAEF02F03882ABEF02F03892FBEF2C
:1005580002F080B0B2EF02F0B4EF02F0CFEF02F099
:1005680020EE05F09051D9269151DA2290C0E1FF92
:1005780091C0E2FFE650800A886FDE50800A885DED
:10058800D8B0C9EF02F0CCEF02F0378CCDEF02F013
:10059800379C1FEF03F020EE06F09051D9269151B9
:1005A800DA2290C0E1FF91C0E2FFE650800A886F2E
:1005B800DE50800A885DD8B0E4EF02F0E7EF02F081
:1005C800378CE8EF02F0379C1FEF03F0378C1FEFF2
:1005D80003F0379C1FEF03F038B2F5EF02F0F8EFA5
:1005E80002F0378CF9EF02F0379C1FEF03F000019F
:1005F80020EE04F09051D9269151DA22DF50866F0F
:10060800876B8751000AD8B40CEF03F01FEF03F093
:100618008651000AD8B4ADEF02F0010AD8B4EAEF67
:1006280002F0030AD8B4EDEF02F0010AD8B4F0EFF3
:1006380002F01FEF03F037AC24EF03F029EF03F0CB
:100648000001866B862B2BEF03F00001866B863B3F
:10065800864780508619DF0B8619806E5AEF03F0A3
:1006680081B039EF03F03BEF03F042EF03F0378E30
:1006780081A240EF03F0379E7DEF03F0378E80A410
:1006880047EF03F0379E7DEF03F0378E7DEF03F0E1
:10069800379E7DEF03F038B254EF03F057EF03F0C5
:1006A800378E58EF03F0379E7DEF03F020EE03F00E
:1006B8009051D9269151DA22DF50866F876B875186
:1006C800000AD8B46AEF03F07DEF03F08651000A00
:1006D800D8B434EF03F0010AD8B449EF03F0030AA1
:1006E800D8B44CEF03F0010AD8B44FEF03F07DEF14
:1006F80003F037AE82EF03F087EF03F00001866B5B
:10070800862B89EF03F00001866B86338633805091
:1007180086197F0B8619806E808C49EF06F0809CC5
:10072800808E808A81BC9BEF03F09EEF03F03880B7
:100738009FEF03F0389038A0A4EF03F0A6EF03F082
:10074800F5EF03F037B6ABEF03F0ADEF03F0B8EF1A
:1007580003F068C064F069C065F06AC066F06BC0F9
:1007680067F03786F5EF03F037B2BDEF03F0BFEF60
:1007780003F0F5EF03F000016451685D896F65517E
:1007880069598A6F66516A598B6F67516B598C6FBB
:100798008C518B110BE1D00E895D070E8A59D8A0B8
:1007A800D8EF03F0DAEF03F0DEEF03F03794378287
:1007B800F5EF03F037B4E3EF03F0E5EF03F0F5EFFF
:1007C80003F08C518B118A1109E1190E895DD8A0AB
:1007D800F0EF03F0F2EF03F0F5EF03F03784F5EFF5
:1007E80003F038B0FAEF03F0FCEF03F049EF06F03E
:1007F80037A601EF04F003EF04F049EF06F037A243
:1008080008EF04F00AEF04F027EF05F000016C513F
:10081800D8A411EF04F013EF04F017EF04F0010E61
:100828006C6F24EF05F00C0E6C19D8A41EEF04F0C1
:1008380020EF04F024EF04F0000E6C6F24EF05F0B5
:1008480037A029EF04F02CEF04F037802DEF04F0E7
:10085800379037B032EF04F034EF04F024EF05F0AE
:10086800000E0001606F000E616F000E626F000ED7
:10087800636F8FC08DF0000E7E6F000E7F6F000ECD
:10088800806F000E816F8DC082F0A8EC0AF0010E17
:1008980000016027000E61236223632378C08DF076
:1008A80060C07EF061C07FF062C080F063C081F0FC
:1008B8008DC082F0A8EC0AF0010E00016027000E3E
:1008C8006123622363237BC08DF060C07EF061C02A
:1008D8007FF062C080F063C081F08DC082F0A8EC28
:1008E8000AF0010E00016027000E612362236323D2
:1008F8007AC08DF060C07EF061C07FF062C080F089
:1009080063C081F08DC082F0A8EC0AF0010E0001EE
:100918006027000E6123622363237CC08DF060C0D2
:100928007EF061C07FF062C080F063C081F08DC04E
:1009380082F0A8EC0AF0010E00016027000E612386
:10094800622363237DC08DF060C07EF061C07FF0BC
:1009580062C080F063C081F08DC082F0A8EC0AF01C
:10096800010E00016027000E61236223632371C01A
:100978008DF060C07EF061C07FF062C080F063C01F
:1009880081F08DC082F0A8EC0AF0010E000160270A
:10099800000E61236223632374C08DF060C07EF073
:1009A80061C07FF062C080F063C081F08DC082F0CA
:1009B800A8EC0AF0010E00016027000E61236223F3
:1009C800632373C08DF060C07EF061C07FF062C0A9
:1009D80080F063C081F08DC082F0A8EC0AF0010EAF
:1009E80000016027000E61236223632375C08DF028
:1009F80060C07EF061C07FF062C080F063C081F0AB
:100A08008DC082F0A8EC0AF0010E00016027000EEC
:100A180061236223632376C08DF060C07EF061C0DD
:100A28007FF062C080F063C081F08DC082F0A8ECD6
:100A38000AF0010E00016027000E61236223632380
:100A4800379248EF06F037A42CEF05F02EEF05F0AB
:100A580048EF06F000016C51D8B435EF05F037EFD8
:100A680005F039EF06F037B03CEF05F03EEF05F042
:100A7800FEEF05F00C0E6C19D8A445EF05F047EF12
:100A880005F04BEF05F0010E6C6F47EF06F06C2B8D
:100A980047EF06F0030E8F19D8A455EF05F057EF6E
:100AA80005F05BEF05F0000E8F6F47EF06F08F2B18
:100AB80047EF06F0500E7819D8A465EF05F067EFF8
:100AC80005F06BEF05F0200E786F47EF06F0782BF6
:100AD80047EF06F0030E7B19D8A475EF05F077EF02
:100AE80005F07BEF05F0000E7B6F47EF06F07B2BE0
:100AF80047EF06F0030E7A19D8A485EF05F087EFC3
:100B080005F08BEF05F0000E7A6F47EF06F07A2BB1
:100B180047EF06F0630E7C19D8A495EF05F097EF20
:100B280005F09BEF05F0000E7C6F47EF06F07C2B7D
:100B380047EF06F0630E7D19D8A4A5EF05F0A7EFDF
:100B480005F0ABEF05F0000E7D6F47EF06F07D2B4B
:100B580047EF06F0500E7119D8A4B5EF05F0B7EFBE
:100B680005F0BBEF05F0200E716F47EF06F0712B13
:100B780047EF06F0030E7419D8A4C5EF05F0C7EFC8
:100B880005F0CBEF05F0000E746F47EF06F0742BFD
:100B980047EF06F0030E7319D8A4D5EF05F0D7EF89
:100BA80005F0DBEF05F0000E736F47EF06F0732BCF
:100BB80047EF06F0630E7519D8A4E5EF05F0E7EFE7
:100BC80005F0EBEF05F0000E756F47EF06F0752B9B
:100BD80047EF06F0630E7619D8A4F5EF05F0F7EFA6
:100BE80005F0FBEF05F0000E766F47EF06F0762B69
:100BF80047EF06F06C51866F876B8751000AD8B4AF
:100C080008EF06F037EF06F08651010AD8B44EEF28
:100C180005F0030AD8B45EEF05F0010AD8B46EEF08
:100C280005F0070AD8B47EEF05F0010AD8B48EEFB4
:100C380005F0030AD8B49EEF05F0010AD8B4AEEF68
:100C480005F00F0AD8B4BEEF05F0010AD8B4CEEF0C
:100C580005F0030AD8B4DEEF05F0010AD8B4EEEFC8
:100C680005F037EF06F047EF06F0030E8E19D8A40B
:100C780040EF06F042EF06F046EF06F0000E8E6FEA
:100C880047EF06F08E2B3794379600016C51D8B495
:100C980050EF06F052EF06F00BEF08F06CC06FF063
:100CA80021EF07F08FC06EF05AEF07F078517E6F92
:100CB8007F6B7EBF7F07000E816F0A0E806F44EC4A
:100CC80009F000017E516F6F78517E6F7F6B7EBF98
:100CD8007F07000E816F0A0E806FA7EC09F00001F4
:100CE8007E516E6F5AEF07F07BC06EF05AEF07F037
:100CF8007AC06EF05AEF07F07C517E6F7F6B7EBF33
:100D08007F07000E816F0A0E806F44EC09F0000126
:100D18007E516F6F7C517E6F7F6B7EBF7F07000EA9
:100D2800816F0A0E806FA7EC09F000017E516E6F8B
:100D38005AEF07F07D517E6F7F6B7EBF7F07000EF5
:100D4800816F0A0E806F44EC09F000017E516F6FCD
:100D58007D517E6F7F6B7EBF7F07000E816F0A0E0D
:100D6800806FA7EC09F000017E516E6F5AEF07F013
:100D780071517E6F7F6B7EBF7F07000E816F0A0EF9
:100D8800806F44EC09F000017E516F6F71517E6FE6
:100D98007F6B7EBF7F07000E816F0A0E806FA7EC06
:100DA80009F000017E516E6F5AEF07F074C06EF0C3
:100DB8005AEF07F073C06EF05AEF07F075517E6F67
:100DC8007F6B7EBF7F07000E816F0A0E806F44EC39
:100DD80009F000017E516F6F75517E6F7F6B7EBF8A
:100DE8007F07000E816F0A0E806FA7EC09F00001E3
:100DF8007E516E6F5AEF07F076517E6F7F6B7EBF24
:100E08007F07000E816F0A0E806F44EC09F0000125
:100E18007E516F6F76517E6F7F6B7EBF7F07000EAE
:100E2800816F0A0E806FA7EC09F000017E516E6F8A
:100E38005AEF07F06E695AEF07F06C51866F876BAF
:100E48008751000AD8B42BEF07F01EEF07F0865140
:100E5800010AD8B456EF06F0030AD8B45AEF06F0E0
:100E6800010AD8B478EF06F0070AD8B47CEF06F088
:100E7800010AD8B480EF06F0030AD8B49EEF06F052
:100E8800010AD8B4BCEF06F00F0AD8B4DAEF06F0BE
:100E9800010AD8B4DEEF06F0030AD8B4E2EF06F090
:100EA800010AD8B400EF07F01EEF07F037B25FEF82
:100EB80007F062EF07F0010E63EF07F0000E866F90
:100EC80037B069EF07F06CEF07F0010E6DEF07F030
:100ED800000E861BD8B473EF07F075EF07F089EFA3
:100EE80007F038B47AEF07F07DEF07F037887EEF28
:100EF80007F0379837B883EF07F086EF07F0378A9F
:100F080087EF07F0379A28EF08F03788378A28EFF5
:100F180008F090C0D9FF91C0DAFFDF507E6F7F6B79
:100F28007EBF7F07000E816F0A0E806F44EC09F0C8
:100F380000017E516F6F90C0D9FF91C0DAFFDF507A
:100F48007E6F7F6B7EBF7F07000E816F0A0E806FFA
:100F5800A7EC09F000017E516E6F379A378828EFA9
:100F680008F020EE02F09051D9269151DA22DF5094
:100F78006D6F6DBFC4EF07F0C2EF07F0D1EF07F058
:100F880038B4C9EF07F0CCEF07F0378ACDEF07F098
:100F9800379A00016D6DD2EF07F0378A6D517E6F79
:100FA8007F6B7EBF7F07000E816F0A0E806F44EC57
:100FB80009F000017E516F6F6D517E6F7F6B7EBFB0
:100FC8007F07000E816F0A0E806FA7EC09F0000101
:100FD8007E516E6F379828EF08F0000E6F6F010E84
:100FE8006E6F38B4FAEF07F0FDEF07F0378AFEEFBF
:100FF80007F0379A378838A403EF08F0379828EFB6
:1010080008F06F696E69379A379828EF08F08E51A3
:10101800866F876B8751000AD8B415EF08F028EF60
:1010280008F08651000AD8B48DEF07F0010AD8B449
:10103800B5EF07F0030AD8B4F1EF07F0010AD8B406
:1010480005EF08F028EF08F06EC086F00001863B37
:10105800F00E8617F00E86176F510F0B8611826EF1
:1010680037AA39EF08F03DEF08F0866B862B3FEF83
:1010780008F00001866B863B81508619EF0B8619B4
:10108800816E37A84AEF08F04EEF08F0866B862B82
:1010980050EF08F00001866B864780508619FD0BDB
:1010A8008619806E94EF02F052EF01F0E1CF04F060
:1010B800E2CF05F0D9CF06F0DACF07F07BA467EFCF
:1010C80008F069EF08F0D5EF08F07B9481A06FEF86
:1010D80008F071EF08F078EF08F081B476EF08F0C7
:1010E80078EF08F0D5EF08F000F000F000F000F01D
:1010F80000F000F000F000F000F000F000F000F068
:1011080080B889EF08F08BEF08F0D5EF08F080A0E1
:1011180090EF08F092EF08F0D5EF08F080B697EF5F
:1011280008F099EF08F0C0EF08F090C0D9FF91C01F
:10113800DAFFDF2A000110EE01F09051E12691510B
:10114800E222E650800A036EDE50800A035CD8B0C3
:10115800B0EF08F0B2EF08F0D5EF08F020EE01F09C
:101168009051D9269151DA2290C0E1FF91C0E2FF57
:10117800DFCFE7FFD5EF08F090C0D9FF91C0DAFFC5
:10118800DF06000EDBBECDEF08F0CBEF08F0D5EFA1
:1011980008F090C0D9FF91C0DAFF000EDF6ED5EFDE
:1011A80008F0A1A0DAEF08F0DCEF08F0FAEF08F099
:1011B800A19081A0E2EF08F0E4EF08F0EBEF08F06F
:1011C80081B4E9EF08F0EBEF08F0FAEF08F000F06F
:1011D80000F081B6F2EF08F0F4EF08F0FAEF08F04B
:1011E80090C0D9FF91C0DAFF000EDF6EF2A2FFEFC8
:1011F80008F001EF09F01AEF09F0F29281B007EF59
:1012080009F009EF09F01AEF09F000F000F081B6D3
:1012180010EF09F012EF09F015EF09F0000E0001C8
:10122800776F770E0001906F000E916FF0A21FEF9D
:1012380009F021EF09F03AEF09F0F09281B427EFB5
:1012480009F029EF09F03AEF09F000F000F081B653
:1012580030EF09F032EF09F035EF09F0000E000128
:10126800706F700E0001906F000E916F07C0DAFF6B
:1012780006C0D9FF05C0E2FF04C0E1FF4292110099
:10128800000E0001836F81BF4EEF09F04CEF09F0AB
:1012980054EF09F0806D811FD8B0812B010E836F48
:1012A8007FBF5BEF09F059EF09F061EF09F07E6D40
:1012B8007F1FD8B07F2B010E831B000E856F000E99
:1012C800846F80518111D8B46CEF09F06EEF09F08A
:1012D80096EF09F0010E826F76EF09F0D89080370B
:1012E8008137822B81AF7BEF09F07DEF09F072EF38
:1012F80009F0D8908437853780517E5D81517F59B8
:10130800D8A089EF09F08BEF09F090EF09F0805130
:101318007E5F81517F5B8481D89081338033822FB7
:101328007DEF09F08351D8B49CEF09F09EEF09F0E6
:10133800A2EF09F0846D851FD8B0852B84C07EF09C
:1013480085C07FF01200000E0001836F7FBFB1EFF0
:1013580009F0AFEF09F0B7EF09F07E6D7F1FD8B045
:101368007F2B010E836F81BFBEEF09F0BCEF09F040
:10137800C2EF09F0806D811FD8B0812B8051811197
:10138800D8B4C9EF09F0CBEF09F0EFEF09F0010E7F
:10139800826FD3EF09F0D89080378137822B81AFE5
:1013A800D8EF09F0DAEF09F0CFEF09F080517E5D50
:1013B80081517F59D8A0E3EF09F0E5EF09F0E9EF93
:1013C80009F080517E5F81517F5BD89081338033F3
:1013D800822FDAEF09F08351D8B4F5EF09F0F7EF6F
:1013E80009F0FBEF09F07E6D7F1FD8B07F2B7EC020
:1013F8007EF07FC07FF01200000E1C6E000E1D6E86
:10140800000E1E6E000E1F6E185019101A101B10B9
:10141800D8B411EF0AF013EF0AF049EF0AF0010E01
:10142800206E1DEF0AF0D890183619361A361B367A
:10143800202A1BAE22EF0AF024EF0AF017EF0AF079
:10144800D8901C361D361E361F361850145C19509D
:1014580015581A5016581B501758D8A036EF0AF0CE
:1014680038EF0AF041EF0AF01850145E1950155A77
:101478001A50165A1B50175A1C80D8901B321A3211
:1014880019321832202E24EF0AF01CC014F01DC0A7
:1014980015F01EC016F01FC017F01200000E106ED7
:1014A800000E116E000E126E000E136E08A05FEF94
:1014B8000AF061EF0AF069EF0AF00C5010260D509F
:1014C80011220E5012220F501322D8900C360D36CE
:1014D8000E360F36D8900B320A32093208320850CD
:1014E80009100A100B10D8A47CEF0AF07EEF0AF05E
:1014F8005AEF0AF010C008F011C009F012C00AF043
:1015080013C00BF01200940EF66E150EF76E000E57
:10151800F86E0900F5CF90F00900F5CF91F000EED4
:1015280060F01E0EEE6AE806FDE1386A376A00EEE2
:1015380039F0090EEE6AE806FDE142904292000E8B
:10154800F86E000154EF01F07EC0A9FF000EAA6EEC
:1015580082C0A8FFA69EA69CA684F29E550EA76EE2
:10156800AA0EA76EA682F28EA6B2BDEF0AF0BFEF52
:101578000AF0B8EF0AF0A69412007EC0A9FF000E88
:0E158800AA6EA69EA69CA680A8501200770010
:020000040020DA
:08000000FFFFFFFFFFFFFFFF00
:020000040030CA
:0E000000FF38193CFFBD85FF0FC00FE00F4019
:0200000400F00A
:10000000004C00002C634C00002C6300000000003A
:00000001FF
