:020000040000FA
:040000003CEF01F0E0
:060008003A82D3EF06F07E
:100018003A80D8CF1FF0E8CF20F0E0CF21F09EA2A1
:1000280018EF00F01AEF00F030EF00F09E92FE0E8D
:10003800365CFF0E3758FF0E3858FF0E3958D8B0C7
:1000480028EF00F02AEF00F030EF00F0010E36261E
:10005800000E3722382239227EA035EF00F037EF24
:1000680000F06FEF00F07E90352A030E35643FEF05
:1000780000F041EF00F06FEF00F0000E356E010E5A
:1000880000016827000E69236A236B23010E3126BD
:10009800000E322233223422345033100BE1F40E96
:1000A800315C010E3258D8A05CEF00F05EEF00F032
:1000B8006FEF00F0000E316E000E326E000E336EE0
:1000C800000E346E30AA6BEF00F06EEF00F0308A4D
:1000D8006FEF00F0309A7BA074EF00F076EF00F03D
:1000E80034EF01F07B9081B07CEF00F07EEF00F000
:1000F80034EF01F081BA83EF00F085EF00F034EFC0
:1001080001F0000EBC6E395038100CE1EC0E365C74
:10011800030E3758D8A093EF00F096EF00F0010EC9
:1001280097EF00F0000E2E6E2E50D8A49EEF00F030
:10013800A0EF00F0AEEF00F0140E3624266EFC0E91
:100148003720276EFF0E3820286EFF0E3920296EC3
:10015800BAEF00F03650EC08266E030E3754276EBF
:10016800000E3854286E000E3954296E2950281074
:10017800271007E1630E265CD8B0C5EF00F0C7EF83
:1001880000F0F5EF00F026C002F027C003F028C009
:1001980004F029C005F00A0E066E000E076E000E68
:1001A800086E000E096E6AEC08F002C00EF003C07B
:1001B8000FF004C010F005C011F00A0E126E000E08
:1001C800136E000E146E000E156E18EC08F00EC0BB
:1001D8002AF00FC02BF010C02CF011C02DF0FDEF4D
:1001E80000F0630E2A6E000E2B6E000E2C6E000EB1
:1001F8002D6E2E50D8A403EF01F005EF01F020EF8B
:1002080001F02AC01BF02BC01CF02CC01DF02DC023
:100218001EF01B1E1C1E1D1E1E1E1B2A000E1C224D
:100228001D221E221BC022F01CC023F01DC024F07A
:100238001EC025F028EF01F02AC022F02BC023F0C1
:100248002CC024F02DC025F022C070F0000E366EB0
:10025800000E376E000E386E000E396E000EBC6E42
:1002680021C0E0FF20C0E8FF1FC0D8FF3A9010006F
:10027800B8EF08F0F29CF29ED08E700ED36E400E4E
:100288009B6EF29AF194000ED56E000E0F01386F36
:10029800000E396F000E3A6F570E926EF90E936E7C
:1002A800000E946E8050000E826E819281949D9013
:1002B8009F90030ECD6E9F92A50EBB6E7C0EBA6EFC
:1002C8007F90F90E526F7C0E516F000E496F000E31
:1002D800486FA280040E666E7C90040E5D6F7C826F
:1002E800040E576F7C84040E546F60C072F061C0B6
:1002F80073F062C074F063C075F0CDEC08F00001D3
:10030800806F010E6027000E61236223632380C083
:1003180083F060C072F061C073F062C074F063C0B3
:1003280075F0CDEC08F00001806F010E6027000E1B
:1003380061236223632380C085F060C072F061C0CE
:1003480073F062C074F063C075F0CDEC08F0000182
:10035800806F010E6027000E61236223632380C033
:1003680084F060C072F061C073F062C074F063C062
:1003780075F0CDEC08F00001806F010E6027000ECB
:1003880061236223632380C082F060C072F061C081
:1003980073F062C074F063C075F0CDEC08F0000132
:1003A800806F010E6027000E61236223632380C0E3
:1003B80086F082C081F0F28CF28E9D827D80A080D2
:1003C8007A807A827A8481B0ECEF01F0EEEF01F066
:1003D800C3EF03F081BEF3EF01F0F6EF01F03088D0
:1003E800F7EF01F0309867EF02F02F9C81B8FFEF2C
:1003F80001F001EF02F095EF02F07151800A540FFD
:10040800D8A009EF02F00BEF02F095EF02F02F8C65
:1004180095EF02F02F9C81A814EF02F016EF02F07E
:1004280095EF02F07151800A540FD8A01EEF02F028
:1004380020EF02F095EF02F00BEF02F07151800A05
:10044800540FD8B02AEF02F02DEF02F02F8C2EEFC8
:1004580002F02F9C95EF02F02F9C81A836EF02F056
:1004680038EF02F095EF02F07151800A440FD8A0DE
:1004780040EF02F042EF02F095EF02F00BEF02F0CE
:1004880081A849EF02F04BEF02F022EF02F0715120
:10049800800A440FD8B053EF02F056EF02F02F8CC9
:1004A80057EF02F02F9C95EF02F02F9C95EF02F08A
:1004B80030B861EF02F064EF02F02F8C65EF02F0C4
:1004C8002F9C95EF02F0000183517A6F7B6B7B5173
:1004D800000AD8B472EF02F095EF02F07A51000AE0
:1004E800D8B4F9EF01F0010AD8B40EEF02F0030A0C
:1004F800D8B422EF02F0010AD8B430EF02F0070AAC
:10050800D8B444EF02F0010AD8B40BEF02F0030AA2
:10051800D8B459EF02F0010AD8B45CEF02F095EFB5
:1005280002F02FAC9AEF02F09FEF02F000017A6B15
:100538007A2BA1EF02F000017A6B7A3B7A47805060
:100548007A19DF0B7A19806EC2EF02F0308080A032
:10055800AFEF02F03090DFEF02F03080DFEF02F013
:100568003090DFEF02F030B8BCEF02F0BFEF02F0DE
:100578003080C0EF02F03090DFEF02F085517A6FE3
:100588007B6B7B51000AD8B4CCEF02F0DFEF02F0AE
:100598007A51000AD8B4AAEF02F0010AD8B4B1EF30
:1005A80002F0030AD8B4B4EF02F0010AD8B4B7EFE6
:1005B80002F0DFEF02F030A0E4EF02F0E9EF02F022
:1005C80000017A6B7A2BEBEF02F000017A6B7A3339
:1005D8007A3380507A197F0B7A19806E308680A41E
:1005E800F7EF02F03096308480ACFCEF02F03094E4
:1005F80073EF03F030B603EF03F006EF03F02F8E2E
:1006080007EF03F02F9EADEF03F02F8E30A40EEF0F
:1006180003F02F9EADEF03F02F9E30A616EF03F0E8
:1006280018EF03F0ADEF03F030B41DEF03F01FEF48
:1006380003F0ADEF03F02F8EADEF03F02F8E30B641
:1006480028EF03F02AEF03F0ADEF03F030A42FEF0B
:1006580003F031EF03F0ADEF03F02F9EADEF03F0A1
:100668002F8E30A639EF03F02F9EADEF03F030B494
:1006780040EF03F043EF03F02F8E44EF03F02F9E7B
:10068800ADEF03F02F9E30B64CEF03F04EEF03F0C2
:10069800ADEF03F030A453EF03F055EF03F0ADEFE7
:1006A80003F01FEF03F02F8E30A65DEF03F05FEF2E
:1006B80003F0ADEF03F030B464EF03F066EF03F03E
:1006C800ADEF03F031EF03F030B86DEF03F070EFEA
:1006D80003F02F8E71EF03F02F9EADEF03F00001B2
:1006E80084517A6F7B6B7B51000AD8B47EEF03F09C
:1006F800ADEF03F07A51000AD8B4FEEF02F0010A18
:10070800D8B409EF03F0030AD8B410EF03F0010AD4
:10071800D8B422EF03F0070AD8B434EF03F0010A83
:10072800D8B43BEF03F0030AD8B446EF03F0010A4C
:10073800D8B457EF03F00F0AD8B41FEF03F0010A3B
:10074800D8B431EF03F0030AD8B468EF03F0ADEF83
:1007580003F02FAEB2EF03F0B7EF03F000017A6BAE
:100768007A2BB9EF03F000017A6B7A477A477A4718
:1007780080507A19F70B7A19806E81EF05F080683E
:1007880081BCC9EF03F0CCEF03F03082CDEF03F06A
:10079800309230A2D2EF03F0D4EF03F023EF04F04D
:1007A8002FB6D9EF03F0DBEF03F0E6EF03F068C0F4
:1007B80064F069C065F06AC066F06BC067F02F86A8
:1007C80023EF04F02FB2EBEF03F0EDEF03F023EF8C
:1007D80004F000016451685D7C6F655169597D6F53
:1007E80066516A597E6F67516B597F6F7F517E11D1
:1007F8000BE1D00E7C5D070E7D59D8A006EF04F002
:1008080008EF04F00CEF04F02F942F8223EF04F08C
:100818002FB411EF04F013EF04F023EF04F07F512D
:100828007E117D1109E1190E7C5DD8A01EEF04F040
:1008380020EF04F023EF04F02F8423EF04F030B20C
:1008480028EF04F02AEF04F081EF05F02FA62FEF30
:1008580004F031EF04F081EF05F02FA236EF04F039
:1008680038EF04F0D7EF04F000016D51D8A43FEF42
:1008780004F041EF04F045EF04F0010E6D6FD4EF82
:1008880004F0060E6D19D8A44CEF04F04EEF04F0F6
:1008980052EF04F0000E6D6FD4EF04F02FA057EF65
:1008A80004F05AEF04F02F805BEF04F02F902FB084
:1008B80060EF04F062EF04F0D4EF04F0000E0001E2
:1008C800606F000E616F000E626F000E636F83C071
:1008D80080F0000E726F000E736F000E746F000EC2
:1008E800756F80C076F09FEC08F0010E000160275C
:1008F800000E61236223632385C080F060C072F01C
:1009080061C073F062C074F063C075F080C076F0A7
:100918009FEC08F0010E00016027000E612362239E
:10092800632384C080F060C072F061C073F062C05D
:1009380074F063C075F080C076F09FEC08F0010E8B
:1009480000016027000E61236223632382C080F0C8
:1009580060C072F061C073F062C074F063C075F07B
:1009680080C076F09FEC08F0010E00016027000EB1
:1009780061236223632386C080F060C072F061C087
:1009880073F062C074F063C075F080C076F09FECBD
:1009980008F0010E00016027000E61236223632323
:1009A8002F9280EF05F02FA4DCEF04F0DEEF04F0C7
:1009B80080EF05F000016D51D8B4E5EF04F0E7EFE2
:1009C80004F071EF05F02FB0ECEF04F0EEEF04F057
:1009D8004EEF05F0060E6D19D8A4F5EF04F0F7EF09
:1009E80004F0FBEF04F0010E6D6F7FEF05F06D2B47
:1009F8007FEF05F0070E8319D8A405EF05F007EF80
:100A080005F00BEF05F0000E836F7FEF05F0832BE9
:100A18007FEF05F0030E8519D8A415EF05F017EF41
:100A280005F01BEF05F0000E856F7FEF05F0852BB5
:100A38007FEF05F00A0E8419D8A425EF05F027EFFB
:100A480005F02BEF05F0000E846F7FEF05F0842B87
:100A58007FEF05F0030E8219D8A435EF05F037EFC4
:100A680005F03BEF05F0000E826F7FEF05F0822B5B
:100A78007FEF05F0500E8619D8A445EF05F047EF33
:100A880005F04BEF05F0200E866F7FEF05F0862B03
:100A98007FEF05F06D517A6F7B6B7B51000AD8B4FC
:100AA80058EF05F06FEF05F07A51010AD8B4FEEF60
:100AB80004F0030AD8B40EEF05F0010AD8B41EEF0B
:100AC80005F0070AD8B42EEF05F0010AD8B43EEFB6
:100AD80005F06FEF05F07FEF05F0030E8119D8A43C
:100AE80078EF05F07AEF05F07EEF05F0000E816FE4
:100AF8007FEF05F0812B2F942F9600016D51D8B40C
:100B080088EF05F08AEF05F083EF06F06DC06FF00F
:100B1800BFEF05F083C06EF0E0EF05F085C06EF022
:100B2800E0EF05F084C06EF0E0EF05F082C06EF0F3
:100B3800E0EF05F08651726F736B72BF7307000E9A
:100B4800756F0A0E746F5CEC07F0000172516F6FDD
:100B58008651726F736B72BF7307000E756F0A0E42
:100B6800746FBFEC07F0000172516E6FE0EF05F093
:100B78006E69E0EF05F06D517A6F7B6B7B51000A6F
:100B8800D8B4C9EF05F0BCEF05F07A51010AD8B422
:100B98008EEF05F0030AD8B492EF05F0010AD8B435
:100BA80096EF05F0070AD8B49AEF05F0010AD8B411
:100BB8009EEF05F0BCEF05F02FB2E5EF05F0E8EF8A
:100BC80005F0010EE9EF05F0000E7A6F2FB0EFEF98
:100BD80005F0F2EF05F0010EF3EF05F0000E7A1BB9
:100BE800D8B4F9EF05F0FBEF05F00FEF06F030BAD7
:100BF80000EF06F003EF06F02F8804EF06F02F98B9
:100C08002FB809EF06F00CEF06F02F8A0DEF06F06B
:100C18002F9AA0EF06F02F882F8AA0EF06F07151C7
:100C2800726F736B72BF7307000E756F0A0E746F65
:100C38005CEC07F0000172516F6F7151726F736B4A
:100C480072BF7307000E756F0A0E746FBFEC07F062
:100C5800000172516E6F2F9A2F88A0EF06F070C0B6
:100C68006CF06CBF3CEF06F03AEF06F049EF06F087
:100C780030BA41EF06F044EF06F02F8A45EF06F050
:100C88002F9A00016C6D4AEF06F02F8A6C51726F33
:100C9800736B72BF7307000E756F0A0E746F5CEC8E
:100CA80007F0000172516F6F6C51726F736B72BFF6
:100CB8007307000E756F0A0E746FBFEC07F0000122
:100CC80072516E6F2F98A0EF06F0000E6F6F010E35
:100CD8006E6F30BA72EF06F075EF06F02F8A76EF76
:100CE80006F02F9A2F8830AA7BEF06F02F98A0EFF6
:100CF80006F06F696E692F9A2F98A0EF06F0815160
:100D08007A6F7B6B7B51000AD8B48DEF06F0A0EFA9
:100D180006F07A51000AD8B413EF06F0010AD8B4E5
:100D280033EF06F0030AD8B469EF06F0010AD8B425
:100D38007DEF06F0A0EF06F06EC07AF000017A3B76
:100D4800F00E7A17F00E7A176F510F0B7A11826E28
:100D58002FAAB1EF06F0B5EF06F07A6B7A2BB7EF52
:100D680006F000017A6B7A4781507A19FD0B7A19DF
:100D7800816E2FA8C2EF06F0C6EF06F07A6B7A2BC9
:100D8800C8EF06F000017A6B7A477A4781507A19E2
:100D9800FB0B7A19816EE7EF01F03CEF01F07BA4C1
:100DA800D8EF06F0DAEF06F024EF07F07B9481B075
:100DB800E0EF06F0E2EF06F024EF07F000F000F0B5
:100DC80000F000F000F000F000F000F000F000F09B
:100DD80000F000F000F080B8F4EF06F0F6EF06F04F
:100DE80024EF07F081A8FBEF06F0FDEF06F024EFF3
:100DF80007F080B202EF07F004EF07F017EF07F0F3
:100E08000001712B8651800A016E7151800A015CC4
:100E1800D8B011EF07F013EF07F024EF07F086C002
:100E280071F024EF07F00001710771BF20EF07F0A0
:100E38001EEF07F024EF07F0000E716F24EF07F0A4
:100E4800A1A029EF07F02BEF07F03FEF07F0A190E3
:100E580081B031EF07F033EF07F03FEF07F000F014
:100E680000F081B63AEF07F03CEF07F03FEF07F0EC
:100E7800000E0001716F7BA244EF07F046EF07F008
:100E88005AEF07F07B9281B04CEF07F04EEF07F076
:100E98005AEF07F000F000F081B655EF07F057EF72
:100EA80007F05AEF07F0000E0001716F3A92110037
:100EB800000E0001776F75BF66EF07F064EF07F06B
:100EC8006CEF07F0746D751FD8B0752B010E776F36
:100ED80073BF73EF07F071EF07F079EF07F0726DEA
:100EE800731FD8B0732B010E771B000E796F000E9D
:100EF800786F74517511D8B484EF07F086EF07F056
:100F0800AEEF07F0010E766F8EEF07F0D8907437CA
:100F18007537762B75AF93EF07F095EF07F08AEFEB
:100F280007F0D890783779377451725D75517359D5
:100F3800D8A0A1EF07F0A3EF07F0A8EF07F07451CE
:100F4800725F7551735B7881D89075337433762FDF
:100F580095EF07F07751D8B4B4EF07F0B6EF07F084
:100F6800BAEF07F0786D791FD8B0792B78C072F096
:100F780079C073F01200000E0001776F73BFC9EFDC
:100F880007F0C7EF07F0CFEF07F0726D731FD8B007
:100F9800732B010E776F75BFD6EF07F0D4EF07F00C
:100FA800DAEF07F0746D751FD8B0752B7451751191
:100FB800D8B4E1EF07F0E3EF07F007EF08F0010E10
:100FC800766FEBEF07F0D89074377537762B75AFDF
:100FD800F0EF07F0F2EF07F0E7EF07F07451725DFA
:100FE80075517359D8A0FBEF07F0FDEF07F001EF3B
:100FF80008F07451725F7551735BD8907533743310
:10100800762FF2EF07F07751D8B40DEF08F00FEF15
:1010180008F013EF08F0726D731FD8B0732B72C00D
:1010280072F073C073F01200000E166E000E176E89
:10103800000E186E000E196E1250131014101510B1
:10104800D8B429EF08F02BEF08F061EF08F0010E93
:101058001A6E35EF08F0D890123613361436153656
:101068001A2A15AE3AEF08F03CEF08F02FEF08F017
:10107800D890163617361836193612500E5C13509B
:101088000F581450105815501158D8A04EEF08F0AA
:1010980050EF08F059EF08F012500E5E13500F5A37
:1010A8001450105A1550115A1680D890153214320F
:1010B800133212321A2E3CEF08F016C00EF017C089
:1010C8000FF018C010F019C011F01200000E0A6ECF
:1010D800000E0B6E000E0C6E000E0D6E02A077EF68
:1010E80008F079EF08F081EF08F006500A2607505B
:1010F8000B2208500C2209500D22D89006360736CC
:1011080008360936D89005320432033202320250CA
:10111800031004100510D8A494EF08F096EF08F017
:1011280072EF08F00AC002F00BC003F00CC004F024
:101138000DC005F0120072C0A9FF000EAA6E76C09D
:10114800A8FFA69EA69CA684F29E550EA76EAA0E80
:10115800A76EA682F28EA6B2B4EF08F0B6EF08F03A
:10116800AFEF08F0A694120000EE60F0120EEE6ADF
:10117800E806FDE1306A2F6A00EE31F0090EEE6AEA
:10118800E806FDE13A903A92000EF86E00013EEF53
:1011980001F072C0A9FF000EAA6EA69EA69CA680AA
:0411A800A850120039
:020000040020DA
:08000000FFFFFFFFFFFFFFFF00
:020000040030CA
:0E000000FF38193CFFBD85FF0FC00FE00F4019
:0200000400F00A
:08000000000000004C000000AC
:00000001FF
